:100000004CC0000067C0000065C0000063C0000075
:1000100061C000005FC000005DC000005BC0000068
:1000200059C0000057C0000055C0000053C0000078
:1000300051C0000074C000004DC000004BC0000063
:1000400049C0000047C0000045C0000043C0000098
:1000500041C000003FC000003DC000003BC00000A8
:1000600039C0000037C0000035C0000033C00000B8
:1000700031C000002FC000002DC000002BC00000C8
:1000800029C0000027C0000025C00000E800EC00E7
:10009000F80000010C011401200111241FBECFEF54
:1000A000D0E4DEBFCDBF11E0A0E0B1E0ECEEF2E0C5
:1000B00000E00BBF02C007900D92A430B107D9F742
:1000C00021E0A4E0B1E001C01D92AC30B207E1F73D
:1000D000E5D00AC195CF8BE0809381008DE790E059
:1000E000909389008093880082E080936F00109243
:1000F0008500109284008091000190910101A091EF
:100100000201B09103018093060190930701A0932F
:100110000801B09309018FB780688FBF08951F92BF
:100120000F920FB60F9211248F939F93AF93BF93AB
:100130008091060190910701A0910801B0910901F9
:100140000197A109B1098093060190930701A0933B
:100150000801B0930901892B8A2B8B2B99F481E03C
:1001600080930A018091000190910101A091020108
:10017000B09103018093060190930701A0930801B9
:10018000B0930901BF91AF919F918F910F900FBED6
:100190000F901F9018956093000170930101809358
:1001A000020190930301609306017093070180930D
:1001B000080190930901089520910B01822F90E08E
:1001C0008730910508F044C0FC01EA5BFF4F83C013
:1001D00081E080930B014AC080910501882321F0C2
:1001E00082E080930B0146C083E080930B0146C000
:1001F000809105018823F1F181E080930B0136C0E5
:1002000080910501882321F084E080930B013AC09E
:1002100085E080930B013AC080910501882391F11C
:1002200083E080930B012AC080910501882321F08F
:1002300086E080930B012EC081E080930B0116C0F5
:1002400080910501882331F185E080930B011EC068
:100250002330A1F028F4213049F02230F1F40AC013
:100260002530A1F078F02630C1F414C081E08093ED
:100270000401089581E080930401089582E0809351
:100280000401089582E080930401089584E080933E
:100290000401089584E08093040108958FEF87B9E5
:1002A00018B811B882B96CE271E080E090E073DFB9
:1002B00012DF10920B0180B1809588708093050148
:1002C0007BDF80910A018823E1F310920A0180917B
:1002D000040188B9F0CFEE0FFF1F0024001C0BBEF5
:0C02E0000790F691E02D0994F894FFCFF0
:0402EC00010000000D
:00000001FF
