:1000000045C0000053C0000051C000004FC00000B8
:100010004DC000004BC0000049C0000047C00000B8
:1000200045C0000043C0000041C000003FC00000C8
:100030003DC000003BC0000039C0000037C00000D8
:1000400035C0000033C0000031C000002FC00000E8
:100050002DC000002BC0000029C0000027C00000F8
:1000600025C0000023C0000021C000001FC0000008
:100070001DC000001BC0000019C0000017C0000018
:1000800015C0000013C0000011C0000011241FBEE5
:10009000CFEFD0E4DEBFCDBF21E0A0E0B1E001C0F2
:1000A0001D92A330B207E1F75ED06BC0A9CF8035B7
:1000B000E1F040F4813099F030F18A3091F08832EB
:1000C00091F01FC0833CC9F028F48138C1F0803A18
:1000D00071F017C0873E79F08F3F59F012C08AE067
:1000E000089588E2089580E5089580EA08958FEFE5
:1000F000089587EE089583EC089581E8089580E0DF
:10010000089580E0089581E0089580B191E0282F5E
:10011000217080FD90E09093010180910201813077
:1001200051F028F0823069F0833079F014C081E01A
:10013000809302010895211115C082E0809302018D
:100140000CC083E0809302010895222359F081E0DE
:10015000809302010895823029F480910001A7DF85
:1001600080930001089511B88FEF82B987B918B84C
:100170001092020110920001C8DF8091000188B93D
:06018000FBCFF894FFCF55
:00000001FF
