S02100005B63676F6D653033325D5F6C61625B335D5F706172745B345D2E7372656330
S113000045C0000053C0000051C000004FC00000B4
S11300104DC000004BC0000049C0000047C00000B4
S113002045C0000043C0000041C000003FC00000C4
S11300303DC000003BC0000039C0000037C00000D4
S113004035C0000033C0000031C000002FC00000E4
S11300502DC000002BC0000029C0000027C00000F4
S113006025C0000023C0000021C000001FC0000004
S11300701DC000001BC0000019C0000017C0000014
S113008015C0000013C0000011C0000011241FBEE1
S1130090CFEFD0E4DEBFCDBF21E0A0E0B1E001C0EE
S11300A01D92A630B207E1F79FD0AAC0A9CF80B1B4
S11300B081708093050120B122702093040130B136
S11300C034703093000140B1407840930101909125
S11300D00201923071F128F4992359F09130B1F072
S11300E077C0943009F44BC0C8F1953009F45CC072
S11300F06FC0811172C0211170C0332309F46DC027
S113010041116BC081E080930201089581110EC0FA
S113011021110CC0332321F0442309F464C006C028
S1130120411104C082E080930201089510920201FB
S113013054C0811110C0211106C031110CC04423D8
S113014009F451C008C0311106C0411104C083E054
S11301508093020145C0109202013FC0811140C04A
S113016021113EC0311105C04423D1F11092020186
S113017034C0411135C084E0809302010895811197
S11301800FC021110DC0311109C0411104C085E017
S1130190809302010895109202011FC0442319F1B3
S11301A083E0809302011CC081110EC0211105C09F
S11301B031110AC0411105C00895311105C0411122
S11301C003C01092020109C083E08093020108C0B9
S11301D0992319F0933039F403C010920301089560
S11301E081E080930301089511B88FEF82B984B937
S11301F015B8109202015BDF8091030185B9FBCF32
S1070200F894FFCF9C
S9030000FC
