:1000000045C0000060C000005EC000005CC0000091
:100010005AC0000058C0000056C0000054C0000084
:1000200052C0000050C000004EC000004CC0000094
:100030004AC000006DC0000046C0000044C000007F
:1000400042C0000040C000003EC000003CC00000B4
:100050003AC0000038C0000036C0000034C00000C4
:1000600032C0000030C000002EC000002CC00000D4
:100070002AC0000028C0000026C0000024C00000E4
:1000800022C0000020C000001EC0000011241FBEBE
:10009000CFEFD0E4DEBFCDBF11E0A0E0B1E0EAE8F1
:1000A000F2E000E00BBF02C007900D92A430B10750
:1000B000D9F721E0A4E0B1E001C01D92AF30B20752
:1000C000E1F7C5D0E0C09CCF8BE0809381008DE745
:1000D00090E0909389008093880082E080936F0085
:1000E000109285001092840080910001909101018E
:1000F000A0910201B0910301809307019093080140
:10010000A0930901B0930A018FB780688FBF08954B
:100110001F920F920FB60F9211248F939F93AF935C
:10012000BF938091070190910801A0910901B091BE
:100130000A010197A109B109809307019093080171
:10014000A0930901B0930A01892B8A2B8B2B99F478
:1001500081E080930B018091000190910101A091B9
:100160000201B09103018093070190930801A093CD
:100170000901B0930A01BF91AF919F918F910F90A8
:100180000FBE0F901F9018956093000170930101AE
:10019000809302019093030160930701709308011B
:1001A0008093090190930A01089580910E01813096
:1001B00051F028F0823059F0833069F010C081E0AE
:1001C00080930E0112C082E080930E0112C083E082
:1001D00080930E0112C081E080930E0106C0823030
:1001E00041F0833051F0813059F481E08093060171
:1001F000089582E080930601089584E080930601CB
:10020000089580910C01882319F0813029F007C0EE
:1002100081E080930C010CC010920C0105C0882372
:1002200019F0813039F404C088E080930501089505
:1002300010920501089580910D01811107C09091E0
:10024000060180910501892B8093040108958FEFA9
:1002500084B915B868EE73E080E090E095DF34DF94
:1002600010920D0110920E0110920C01CADF9DDF59
:10027000E2DF8091040185B980910B018823E1F3CD
:0A02800010920B01F3CFF894FFCFAA
:04028A00010000006F
:00000001FF
