S02100005B63676F6D653033325D5F6C61625B335D5F706172745B335D2E7372656331
S113000045C0000053C0000051C000004FC00000B4
S11300104DC000004BC0000049C0000047C00000B4
S113002045C0000043C0000041C000003FC00000C4
S11300303DC000003BC0000039C0000037C00000D4
S113004035C0000033C0000031C000002FC00000E4
S11300502DC000002BC0000029C0000027C00000F4
S113006025C0000023C0000021C000001FC0000004
S11300701DC000001BC0000019C0000017C0000014
S113008015C0000013C0000011C0000011241FBEE1
S1130090CFEFD0E4DEBFCDBF21E0A0E0B1E001C0EE
S11300A01D92A630B207E1F765D070C0A9CF80B128
S11300B081708093050190B192709093040120B1F6
S11300C024702093000140B14078409301013091A5
S11300D00201313091F028F0323009F1333099F1D6
S11300E03DC0811140C091113EC02223E1F1411174
S11300F03AC081E080930201089581110DC09111ED
S11301000BC0222319F04423A1F106C0411104C0FD
S113011082E08093020108951092020124C08111AB
S11301200FC0911105C021110BC0442311F108C067
S1130130211106C0411104C083E08093020116C05E
S11301401092020110C0811111C091110FC0211130
S11301500DC0442359F01092020105C0332319F055
S1130160333039F403C010920301089581E0809381
S11301700301089511B88FEF82B984B915B81092AC
S1130180020195DF8091030185B9FBCFF894FFCF7D
S9030000FC
