S02100005B63676F6D653033325D5F6C61625B375D5F706172745B345D2E737265632C
S113000045C0000060C000005EC000005CC000008D
S11300105AC0000058C0000056C0000054C0000080
S113002052C0000050C000004EC000004CC0000090
S11300304AC000006DC0000046C0000044C000007B
S113004042C0000040C000003EC000003CC00000B0
S11300503AC0000038C0000036C0000034C00000C0
S113006032C0000030C000002EC000002CC00000D0
S11300702AC0000028C0000026C0000024C00000E0
S113008022C0000020C000001EC0000011241FBEBA
S1130090CFEFD0E4DEBFCDBF11E0A0E0B1E0E4E4F7
S11300A0F4E000E00BBF02C007900D92A830B10746
S11300B0D9F721E0A8E0B1E001C01D92A731B20751
S11300C0E1F760D1BDC19CCF8BE0809381008DE7C7
S11300D090E0909389008093880082E080936F0081
S11300E01092850010928400809104019091050182
S11300F0A0910601B091070180930D0190930E0128
S1130100A0930F01B09310018FB780688FBF08953B
S11301101F920F920FB60F9211248F939F93AF9358
S1130120BF9380910D0190910E01A0910F01B091A8
S113013010010197A109B10980930D0190930E015B
S1130140A0930F01B0931001892B8A2B8B2B99F468
S113015081E0809311018091040190910501A091A7
S11301600601B091070180930D0190930E01A093B5
S11301700F01B0931001BF91AF919F918F910F9098
S11301800FBE0F901F9018956093040170930501A2
S1130190809306019093070160930D0170930E0103
S11301A080930F019093100108958091160181307E
S11301B051F028F0823059F0833069F010C081E0AA
S11301C08093160112C082E08093160112C083E06E
S11301D08093160112C081E08093160106C082301C
S11301E041F0833051F0813059F481E080930C0167
S11301F0089582E080930C01089584E080930C01BB
S1130200089580911301882319F0813029F007C0E3
S113021081E0809313010CC01092130105C0882360
S113022019F0813039F404C088E080930B010895FB
S113023010920B0108958091140181110AC09091CC
S11302400C0180910B01892B90910A01892B8093D9
S11302500801089580B1809584708093090190917C
S11302601501913051F018F0923081F018C08823B4
S1130270E1F081E0809315011BC0882321F082E026
S11302808093150119C0109215010FC0882321F025
S113029081E0809315010CC01092150106C09130C5
S11302A039F018F0923051F407C010920A01089501
S11302B080E180930A01089510920A01089580B1A3
S11302C0282F217080B18095827090911201923014
S11302D0F1F028F4992341F09130A9F026C093302D
S11302E0D9F09430E9F021C0211106C0811149C030
S11302F081E0809312011EC0882309F442C083E088
S1130300809312012BC082E080931201089522236E
S1130310C1F110921201089584E0809312010895AE
S113032081112FC0109212010895913019F0933069
S1130330A9F008958091000190910101A09102011A
S1130340B09103010196A11DB11D8093000190930A
S11303500101A0930201B09303010895809100016B
S113036090910101A0910201B09103010197A109AB
S1130370B1098093000190930101A0930201B0930D
S11303800301089511B88FEF82B984B915B861E0FB
S113039070E080E090E0F8DE97DE10921401109295
S11303A0160110921301412C512C3201812C912CF5
S11303B05401C12CD12C76010FC023DF812C912C48
S11303C054018CE2C81681E0D806E104F10420F05F
S11303D0ECDEC12CD12C76018091000190910101B9
S11303E0A0910201B0910301481659066A067B06E2
S11303F020F030DF412C512C320161DF1CDF809171
S1130400080185B9809111018823E1F3109211014B
S11304108FEF881A980AA80AB80A8FEFC81AD80A60
S1130420E80AF80A8FEF481A580A680A780A88EE28
S1130430881683E09806A104B10408F4C2CFBDCFA6
S1070440F894FFCF5A
S10B04440200000001000000A9
S9030000FC
