:100000008AC00000A5C00000A3C00000A1C000007D
:100010009FC000009DC000009BC0000099C0000070
:1000200097C0000095C0000093C0000091C0000080
:100030008FC00000C3C000008BC0000089C000005A
:1000400087C0000085C0000083C0000081C00000A0
:100050007FC000007DC000007BC0000079C00000B0
:1000600077C0000075C0000073C0000071C00000C0
:100070006FC000006DC000006BC0000069C00000D0
:1000800067C0000065C0000063C00000D202CF025C
:10009000CF02CF02CF02CF02CF02CF02CF02CF02D8
:1000A000CF02CF02CF02CF02CF02CF02CF02CF02C8
:1000B000CF02CF02CF02CF02CF02CF02CF02CF02B8
:1000C000CF02CF02CF02CF02CF02CF02CF02CF02A8
:1000D000CF02BF02CF02CF02CF02CF02CF02CF02A8
:1000E000A002CF02CF02CF02CF02CF02B002D001D6
:1000F000E001F00100021002200230024002500232
:10010000CF02CF02CF02CF02CF02CF02CF026002D6
:1001100070028002900211241FBECFEFD0E4DEBF38
:10012000CDBF11E0A0E0B1E0E2E8F6E000E00BBFF7
:1001300002C007900D92A631B107D9F721E0A6E1E0
:10014000B1E001C01D92A732B207E1F739D297C2E0
:1001500057CF609301017093020180930301909344
:1001600004016093220170932301809324019093F2
:10017000250108958BE0809381008DE790E09093B6
:1001800089008093880082E080936F001092850040
:10019000109284008091010190910201A0910301CD
:1001A000B09104018093220190932301A093240134
:1001B000B09325018FB780688FBF08951F920F926B
:1001C0000FB60F9211248F939F93AF93BF9380919B
:1001D000220190912301A0912401B0912501019762
:1001E000A109B1098093220190932301A0932401D6
:1001F000B0932501892B8A2B8B2B99F481E0809376
:1002000026018091010190910201A0910301B0911A
:1002100004018093220190932301A0932401B093C1
:100220002501BF91AF919F918F910F900FBE0F90BD
:100230001F901895181619065CF0089500002150BB
:100240003109E1F74F5F5F4F8417950719F408955F
:1002500040E050E027E033E0F1CF10988BB9119ADD
:100260000000119882E090E0E5CF089581E0F5CF9D
:100270000895813118F48158F0CF08958155EDCF5C
:10028000089584E690E0D6DF88E3E7DF86E0E5DFE7
:100290008FE0E3DF81E0E1DF8AE090E0CBCF0895FB
:1002A000109A8BB9119A0000119881E090E0C2CFAA
:1002B00008950F931F93CF93DF93182FEB01D6DF91
:1002C0008881882351F001E0010F812FD2DF8991CD
:1002D000E7DF102F88818111F6CFDF91CF911F9139
:1002E0000F9108958FEE88B90000309B29C0319B93
:1002F00029C0329B29C0339B29C08FED88B90000EB
:10030000309B26C0319B26C0329B26C0339B26C023
:100310008FEB88B90000309B23C0319B23C0329BF8
:1003200023C0339B23C08FE788B90000309B20C0D7
:10033000319B20C0329B20C0339B20C080E00895B9
:1003400081E3089584E3089587E308958AE2089598
:1003500082E3089585E3089588E3089580E308958E
:1003600083E3089586E3089589E3089583E2089579
:1003700081E4089582E4089583E4089584E408956F
:10038000CF93DF93EC01AEDF209709F015C190E029
:100390008534910508F003C1FC01EA5BFF4F66C19B
:1003A00081E0809321018091000163DF8091210130
:1003B000805D76DF809100018F5F80930001F2C045
:1003C00082E0809321018091000153DF809121011F
:1003D000805D66DF809100018F5F80930001E2C045
:1003E00083E0809321018091000143DF809121010E
:1003F000805D56DF809100018F5F80930001D2C045
:1004000084E0809321018091000133DF80912101FC
:10041000805D46DF809100018F5F80930001C2C044
:1004200085E0809321018091000123DF80912101EB
:10043000805D36DF809100018F5F80930001B2C044
:1004400086E0809321018091000113DF80912101DA
:10045000805D26DF809100018F5F80930001A2C044
:1004600087E0809321018091000103DF80912101C9
:10047000805D16DF809100018F5F8093000192C044
:1004800088E08093210180910001F3DE80912101B9
:10049000805D06DF809100018F5F8093000182C044
:1004A00089E08093210180910001E3DE80912101A8
:1004B000805DF6DE809100018F5F8093000172C045
:1004C0008AE08093210180910001D3DE8091210197
:1004D000895CE6DE809100018F5F8093000162C03D
:1004E0008BE08093210180910001C3DE8091210186
:1004F000895CD6DE809100018F5F8093000152C03D
:100500008CE08093210180910001B3DE8091210174
:10051000895CC6DE809100018F5F8093000142C03C
:100520008DE08093210180910001A3DE8091210163
:10053000895CB6DE809100018F5F8093000132C03C
:100540008EE0809321018091000193DE8091210152
:10055000845EA6DE809100018F5F8093000122C03F
:10056000109221018091000184DE80912101805D43
:1005700097DE809100018F5F8093000113C08FE0B0
:10058000809321018091000174DE809121018C5EB5
:1005900087DE809100018F5F8093000103C08BE1B3
:1005A0008093210180910001813119F481E08093D1
:1005B00000018091210185B9CE01DF91CF9108958D
:1005C0008FEF81B912B884B915B890EF97B99FE051
:1005D00098B98AB91BB8E6E1F1E0108282E390E0B5
:1005E000A0E0B0E081839283A383B4838583968364
:1005F000A783B08780EC91E09287818761E070E00B
:1006000080E090E0A6DDB6DD3CDE65E071E081E0F3
:1006100050DEC6E1D1E04D815E816F8178858981B0
:100620009A81AB81BC81481759076A077B0760F044
:100630008881E985FA85082E000C990B0995888335
:100640001D821E821F8218868D819E81AF81B88592
:100650000196A11DB11D8D839E83AF83B8878091C4
:1006600026018823E1F310922601D5CFEE0FFF1F5C
:100670000024001C0BBE0790F691E02D0994F8941D
:02068000FFCFAA
:100682000101000000436F6E67726174756C6174E2
:06069200696F6E730000A9
:00000001FF
