:1000000045C0000060C000005EC000005CC0000091
:100010005AC0000058C0000056C0000054C0000084
:1000200052C0000050C000004EC000004CC0000094
:100030004AC00000C5C0000046C0000044C0000027
:1000400042C0000040C000003EC000003CC00000B4
:100050003AC0000038C0000036C0000034C00000C4
:1000600032C0000030C000002EC000002CC00000D4
:100070002AC0000028C0000026C0000024C00000E4
:1000800022C0000020C000001EC0000011241FBEBE
:10009000CFEFD0E4DEBFCDBF11E0A0E0B1E0E6EDF0
:1000A000F3E000E00BBF02C007900D92AE30B10745
:1000B000D9F721E0AEE0B1E001C01D92A731B2074F
:1000C000E1F754D186C19CCF181619065CF008954B
:1000D000000021503109E1F74F5F5F4F841795070A
:1000E00019F4089540E050E027E033E0F1CF5E9846
:1000F00088B95F9A00005F9882E090E0E5CF0895AC
:1001000081E0F5CF0895813118F48158F0CF08953A
:100110008155EDCF089584E690E0D6DF88E3E7DFF0
:1001200086E0E5DF8FE0E3DF81E0E1DF8AE090E079
:10013000CBCF08955E9A88B95F9A00005F9881E0FE
:1001400090E0C2CF08950F931F93CF93DF93182FA2
:10015000EB01D6DF8881882351F001E0010F812F68
:10016000D2DF8991E7DF102F88818111F6CFDF91EF
:10017000CF911F910F9108958BE0809381008DE7BF
:1001800090E0909389008093880082E080936F00D4
:1001900010928500109284008091000190910101DD
:1001A000A0910201B091030180931101909312017B
:1001B000A0931301B09314018FB780688FBF089587
:1001C0001F920F920FB60F9211248F939F93AF93AC
:1001D000BF938091110190911201A0911301B091F0
:1001E00014010197A109B1098093110190931201A3
:1001F000A0931301B0931401892B8A2B8B2B99F4B4
:1002000081E0809315018091000190910101A091FE
:100210000201B09103018093110190931201A09308
:100220001301B0931401BF91AF919F918F910F90E3
:100230000FBE0F901F9018956093000170930101FD
:100240008093020190930301609311017093120156
:1002500080931301909314010895809116018230C8
:1002600049F128F4882351F08130E1F059C08430FD
:10027000E9F1A0F1853009F44BC052C08091100122
:10028000882361F081E08093160180910E0188231C
:1002900009F458C0815080930E0154C082E08093CD
:1002A000160154C080911001882309F44BC01092AC
:1002B000160144C080911001882361F083E080938F
:1002C000160180910E01893008F044C08F5F809341
:1002D0000E0140C084E08093160140C0809110015F
:1002E0008823C1F182E08093160130C08091100113
:1002F000882359F085E08093160180910E018823B0
:1003000089F1815080930E012DC01092160116C004
:1003100080911001882331F184E0809316011EC082
:100320008230A1F028F4882349F08130F1F40AC02A
:100330008430A1F078F08530C1F414C081E080935E
:100340000F01089581E080930F01089582E080936A
:100350000F01089582E080930F01089584E0809357
:100360000F01089584E080930F0108958FEF84B901
:1003700015B811B882B987B918B88AB91BB86CE238
:1003800071E080E090E058DFF7DE10921601C3DEE6
:10039000B7DE85E080930E0181E0B5DE80910E012D
:1003A000893029F464E071E081E0CDDE02C0805D37
:1003B000C1DE80B180958170809310014EDF809105
:1003C00015018823E1F31092150180910F0185B981
:0603D000E3CFF894FFCF1B
:0E03D60001000000596F752057696E2121004B
:00000001FF
